:020000040000FA
:060000000A128A110E280D
:10000800FE00030EF0000A08F1007F08F2000A1251
:100018008A15352D0A128A1111288313D530FD004F
:100028001630FE009A30FF00BC3084000A168A1190
:100038004B260A128A115C30FD000530FE00FC30A8
:10004800FF00593084000A168A114B260A128A11B9
:100058000A128A11FF250A128A11FA00A0308400B8
:10006800BC300A168A11F8250A128A113F3084001A
:1000780059300A168A11F8250A128A11F601F70171
:10008800F801F90183010A128A114A280A168A110D
:10009800A8270A128A1183160313E701E70A5208F0
:1000A800E2005308E3005408E400D5308400BC3073
:1000B80083120313BB000408BC000C30BD003B08CE
:1000C800840083130008BE00BB0A3C0884003E0875
:1000D8008000BC0ABD0B632883160313E501E60103
:1000E80083120313AA01E2300A128A158F220A1218
:1000F8008A11253083120313A4008730A50000302D
:100108000A128A150D200A128A1101300A168A115C
:100118007E270A128A1183160313EA000A30831213
:100128000313A2000030A3000A168A115A260A12E5
:100138008A11740883120313A5007308A4000A1215
:100148008A15FC210A128A118312031322088316C6
:100158000313E80064306802031CB328B428B628E7
:100168006330E8003E306A06031DBB28BC28D3284C
:100178002A30F3008730F400E2300A168A11592732
:100188000A128A1183160313680883120313AA003C
:10019800E2300A128A158F220A128A11FA2A3D3091
:1001A8006A06031DD828D9280F296608803AFF0057
:1001B80080307F02031DE228063065020318E52817
:1001C800E6280F2983160313650883120313BB005F
:1001D8003B07D53E840083130008F300840A000817
:1001E8008403F400E2300A168A1159270A128A1188
:1001F800013083160313E5070318E60A0030E60703
:10020800680883120313AA00E2300A128A158F22A3
:100218000A128A11FA2A3B30831603136A06031D51
:10022800162917294D296608803AFF0080307F0279
:10023800031D202901306502031C232924294D2987
:10024800FF3083160313E5070318E60AFF30E607B5
:10025800650883120313BB003B07D53E8400831354
:100268000008F300840A00088403F400E2300A1648
:100278008A1159270A128A118316031368088312F0
:100288000313AA00E2300A128A158F220A128A1171
:10029800FA2A3730831603136A0603195429552995
:1002A8005B292F306A06031D5A295B2994296703A5
:1002B800031D5F29602994290A168A1135260A1216
:1002C8008A11023083160313E700E901E90A78303E
:1002D80083120313A1008630A2008130A3000A1202
:1002E8008A153C200A128A11C23083120313A8000F
:1002F80020300A168A116E260A128A11F3010F306D
:100308000A168A11EF260A128A11A53083120313DE
:10031800BB00BB0B8D299029831203131215FA2AEF
:100328001F306A06031D99299A29FA2A043067069C
:10033800031D9F29A029FA2AF0290A168A113526B1
:100348000A128A11473083120313A1008630A200D3
:100358008030A3000A128A153C200A128A1108303C
:1003680083160313E7000830E900FA2A0A168A11EF
:1003780035260A128A11103083160313E700043059
:10038800E900FA2A203083160313E700FA2A0A162E
:100398008A1135260A128A11003083120313A1002C
:1003A8008730A2008030A3000A128A153C200A1266
:1003B8008A11403083160313E7001030E900FA2A47
:1003C8000A168A1135260A128A11803083160313F9
:1003D800E7008030E900FA2A610883120313BB00A2
:1003E800BC013C08003A0319FA290B2A3B08003AD9
:1003F8000319A129013A0319BA29033A0319C6298D
:10040800013A0319CB29073A0319E4290B2AFA2AD6
:1004180083160313680883120313AC0083160313AF
:10042800690883120313AD00E2300A128A1500240A
:100438000A128A11202B83160313E701E70AF30136
:100448000C300A168A11EF260A128A11A530831277
:100458000313BB00BB0B2E2A312A8312031312117C
:10046800202B043083160313E7000530E9008928A0
:10047800831603136A0883120313AA00831603134F
:1004880069080A128A1127230A128A118312031390
:10049800BB00BC013C08003A0319532A202B3B0837
:1004A800013A0319352A023A03191F2A202BF301AE
:1004B8000C300A168A11EF260A128A11A530831207
:1004C8000313BB00BB0B662A692A831603136A0849
:1004D80083120313AA008316031369080A128A11E8
:1004E8003F270A128A1183160313E100202B831673
:1004F8000313690883120313AA00831603136A08F7
:100508000A128A15C9260A128A11033A031D8D2A6E
:100518008E2A202B0A168A1135260A128A110430CF
:1005280083160313E7000530E90083120313121141
:1005380089288316031369080A128A1509210A12E1
:100548008A11113A031DA92AAA2A202B0A168A11F0
:1005580035260A128A11043083160313E700053082
:10056800E9008928831603136A0883120313AA0073
:100578008316031369080A128A15AD250A128A110F
:10058800033A031DC82AC92A202B8E2A0A168A1163
:1005980035260A128A11F3010C300A168A11EF2641
:1005A8000A128A11A53083120313BB00BB0BDA2A87
:1005B800DD2AAF2A83160313690883120313AA00DE
:1005C800831603136A080A128A11B9240A128A11B7
:1005D80083120313BB00BC013C08003A0319F52A37
:1005E800202B3B08113A0319CA2A202B8316031320
:1005F800670883120313BB00BC013C08003A0319C7
:10060800062B202B3B08013A03190C2A033A03193D
:100618003C2A063A03195B2A0C3A03197B2A183A32
:1006280003199D2A303A0319202B603A0319B62A78
:10063800C03A0319DE2A202B83160313E9018928FF
:100648000A128A110E2883120313AE002E03031D0B
:100658002E2B2F2B422BD1010330D00083160313EE
:10066800B801B901BA01BB013F3083120313AA00D4
:100678000530CC000030CD00C601C7014C084D0440
:10068800031D472B482B4A2B0330B82C37302A063A
:10069800031D4F2B502B702B043051020318552B80
:1006A800562B702B5108B83E8400313083138000DC
:1006B8000130AB002B08D1075108C23EA8002A30F0
:1006C8000A168A116E260A128A110530831203133C
:1006D800CC000030CD00902B2F302A06031D752B3F
:1006E800762B902B0430510203187B2B7C2B902BFC
:1006F8005108B83E84003030831380000130AB00CD
:100708002B08D1075108C23EA8002A300A168A11C0
:100718006E260A128A11692B04305106031D952B87
:10072800962BB82CAF01B001831203132F08B43EE7
:1007380084002F080A128A15A2200A128A1183132C
:100748008000013083120313AF070318B00A00308A
:10075800B0073008803AFF0080307F02031DB62BB7
:1007680004302F02031CB92BBA2B982BB430F3009A
:100778000430F4000030F500B8300A128A15BC21A4
:100788000A128A1173087404031DCB2BCC2BCE2BB1
:100798000130B82C013083120313D0025008031D16
:1007A800D62BD72B4F2C0A168A1135260A128A11F6
:1007B800F3010C300A168A11EF260A128A11033047
:1007C80083120313AD008A30AC005530AB00AB0B7D
:1007D800EB2BAC0BEB2BAD0BEB2B5830831203132D
:1007E800A1008630A2008030A3000A128A153C209E
:1007F8000A128A11003083120313A1008630A20066
:10080800C030A3000A128A153C200A128A113C3013
:1008180083120313C6000030C700442CC930A80057
:100828000A30A0000030A1004708A3004608A20033
:100838000A128A15CC240A128A118312031320087B
:10084800303E0A168A116E260A128A11CA3083129D
:100858000313A8000A30A0000030A1004708A30035
:100868004608A2000A128A15E3220A128A11831284
:1008780003132008303E0A168A116E260A128A11BE
:100888008312031346084704031D4B2C4C2C122CCF
:100898000330D000872C0A168A1135260A128A11CD
:1008A800B53083120313A1008630A2008030A30064
:1008B8000A128A153C200A128A11C03083120313C7
:1008C800A8005008303E0A168A116E260A128A11AC
:1008D800DF3083120313A1008630A200C230A300C8
:1008E8000A128A153C200A128A1133308312031324
:1008F800AD00BB30AC00DF30AB00AB0B812CAC0BD8
:10090800812CAD0B812C0A168A1135260A128A1100
:10091800A63083120313A1008630A2008130A30001
:100928000A128A153C200A128A11C2308312031354
:10093800A80020300A168A116E260A128A11F301BD
:100948000F300A168A11EF260A128A11A53083126F
:100958000313AB00AB0BAE2CB12C83120313D101E4
:100968000530CC000030CD00080083120313AE0020
:1009780080302A06031DC12CC22CC82CC401C50115
:100988000130C2000030C3004508803AFF008030C3
:100998007F02031DD12C043044020318D42CD52C1B
:1009A800F92C83120313420843040319DC2CDD2CB1
:1009B800F92CC201C301C430A1008630A2008030E6
:1009C800A3000A128A153C200A128A11F301C030CA
:1009D8000A168A11EF260A128A11F3010F300A1635
:1009E8008A11EF260A128A11342D8312031345083F
:1009F800803AFF0080307F02031D042D043044023A
:100A0800031C072D082D342D8312031342084304B9
:100A1800031D0F2D102D342D0130C2000030C300EE
:100A28000A168A1135260A128A11253083120313F1
:100A3800A1008630A2008030A3000A128A153C204B
:100A48000A128A11F301C0300A168A11EF260A1217
:100A58008A11F3010F300A168A11EF260A128A1139
:100A68003730831203132E06031D3B2D3C2D552DC5
:100A78004408AB3E840034308313800044080339B3
:100A8800C03EA8002A300A168A116E260A128A1158
:100A9800013083120313C4070318C50A0030C507C1
:100AA8006C2D2F302E06031D5A2D5B2D6C2D4408FE
:100AB800AB3E840032308313800044080339C03EC3
:100AC800A8002A300A168A116E260A128A114C2D9D
:100AD800083044064504031D722D732DFB2DAF30DD
:100AE800F3000430F4000030F500AB300A128A1528
:100AF800BC210A128A1173087404031D842D852DE4
:100B0800DB2D83120313AF01B001831203132F08E7
:100B1800AB3E840083130008F3002F080A168A11DD
:100B2800D3270A128A11013083120313AF0703185F
:100B3800B00A0030B0073008803AFF0080307F02EA
:100B4800031DA82D04302F02031CAB2DAC2D892DBD
:100B58000A168A1135260A128A11363083120313AF
:100B6800A1008630A2008030A3000A128A153C201A
:100B78000A128A11973083120313A1008630A2004B
:100B8800C030A3000A128A153C200A128A114D307F
:100B980083120313AD001930AC004F30AB00AB0B20
:100BA800D32DAC0BD32DAD0BD32D1130FB2D0A1645
:100BB8008A1135260A128A11363083120313A100CE
:100BC8008630A2008030A3000A128A153C200A123F
:100BD8008A110A3083120313A1008730A200C030A3
:100BE800A3000A128A153C200A128A11CB2D08008C
:100BF80003340034FF3401345734613469347434B5
:100C0800203466346F34723420343634303420342F
:100C18007334653463346F346E346434733400343D
:100C280020342034543449344D344534203420346D
:100C38002034203420344534203420345334503484
:100C48000034523465342D3465346E34743465346C
:100C5800723420344E346534773420345034773449
:100C6800643400342034503461347334733477344A
:100C78006F347234643420344334683461346E34ED
:100C880067346534003423342034543449344D34C3
:100C98004534203420342034203420344534203462
:100CA800203453345034003459346F34753420347C
:100CB800613472346534203462346C346F34633494
:100CC8006B346534643400344334683461346E34CE
:100CD8006734653420347034613473347334773452
:100CE8006F3472346434003445346E34743465348B
:100CF80072342034503461347334733477346F343D
:100D0800723464342034003420344C346F34673403
:100D18007334203443346C3465346134723465344C
:100D280064342034003420345334753463346334E9
:100D3800653473347334663475346C346C34793494
:100D48002034003445346E347434653472342034BD
:100D5800503461347334733477346F347234643498
:100D68000034773472346F346E346734203470341E
:100D780061347334733477346F34723464340034C8
:100D880045346E3474346534723420344E346534EA
:100D980077342034503477346434003444346F3436
:100DA80077346E346C346F346134643420346C348A
:100DB8006F346734003441347434743465346D34BA
:100DC800703474342034723465346D3400345234E1
:100DD80065347334653474342034743469346D3450
:100DE8006534003443346C346534613472342034EF
:100DF8006C346F34673400342034533445345434FD
:100E08002034543449344D34453400342034463485
:100E1800613469346C3465346434203400345634B5
:100E280069346534773420346C346F346734003473
:100E380020344E346F3420346C346F346734733458
:100E480000343134303431343034003443342034D5
:100E580000344734313400344734323400344734B2
:100E68003334003447343434003447344E34003497
:100E780047345234003483120313AD0005302D0675
:100E8800031D472F482F4E2FCF010A168A113526EA
:100E98000A128A112F30831203132A06031D552FB5
:100EA800562F662F04304F0203185B2F5C2F662FD6
:100EB8000130AB002B08CF070A168A1135260A1213
:100EC8008A11742F37302A06031D6B2F6C2F742F4D
:100ED8004F080319702F712F742F0130CF02602F24
:100EE8000430831203134F0203187B2F7C2FAF2F7C
:100EF8008030A8002A300A168A116E260A128A1132
:100F0800831203134F08AB002B07C83E84008313DA
:100F18000008A100840A00088403A2008230A3000C
:100F28000A128A153C200A128A11831203134F08E9
:100F3800AB002B07CA3E840083130008A100840A73
:100F480000088403A200C230A3000A128A153C20BC
:100F58000A128A11E72F04304F06031DB42FB52F4C
:100F6800E72FC030A8002A300A168A116E260A1206
:100F78008A11831203134F08AB002B07C63E840067
:100F880083130008A100840A00088403A2008230A9
:100F9800A3000A128A153C200A128A11831203132D
:100FA8004F08AB002B07C83E840083130008A1003C
:100FB800840A00088403A200C230A3000A128A151A
:100FC8003C200A128A11831203134F0808000030CC
:100FD8000A128A156F200A128A1183120313A400B9
:100FE80024087F39A4002408A20000300A168A11B8
:100FF80011270A128A11080083120313121492147B
:10100800FA308316031392008C14831203131211FF
:10101800080083120313A7002D282508FF002408C1
:1010280084000A168A1100200A128A15A2002708CD
:101038000A168A1135270A128A15013083120313FA
:10104800A4070318A50A0030A5070130A600260842
:10105800A7072508FF00240884000A168A11002023
:101068000A128A15003A031D3A283B28112808005D
:10107800F3018312031323080A168A11EF260A12B2
:101088008A155E28F301F30A2208FF00210884006C
:101098000A168A1100200A128A150A168A11EF26E2
:1010A8000A128A15013083120313A1070318A20A32
:1010B8000030A207831203132208FF0021088400CE
:1010C8000A168A1100200A128A15003A031D6D2893
:1010D8006E284628080083120313A2000A168A11F4
:1010E80000260A128A15D0300A168A11B3260A1267
:1010F8008A158312031322080A168A11B3260A12C4
:101108008A150A168A1112260A128A15D1300A1669
:101118008A11B3260A128A1500300A168A11CE26B9
:101128000A128A1583120313A3000A168A110926C4
:101138000A128A1583120313230808008312031363
:10114800A2000A168A1100260A128A15A0300A1669
:101158008A11B3260A128A158312031322080A1663
:101168008A11B3260A128A150A168A1112260A1239
:101178008A15A1300A168A11B3260A128A15003078
:101188000A168A11CE260A128A1583120313A3009F
:101198000A168A1109260A128A15831203132308CC
:1011A80008008312031394152D08B1002E08B2000D
:1011B8002F08B3003008B40002300310B10DB20D8F
:1011C800B30DB40DFF3E031DE1283408A300330816
:1011D800A2003208A1003108A0000130A700313078
:1011E800A6002D30A5000030A4000A128A15642438
:1011F8000A128A15831203132008FF3E831603136D
:101208009300831203139416080083120313A70094
:1012180004302706031D112912294029FF30DB005D
:10122800FF30C800FF30C9008830A1008630A20016
:101238008030A3000A128A153C200A128A159730BA
:1012480083120313A1008630A200C030A3000A1243
:101258008A153C200A128A154D3083120313A60002
:101268001930A5004F30A400A40B3829A50B382944
:10127800A60B382911304129223008000530831285
:101288000313A9000130A8002808DB070A305B0611
:10129800031D4F2950295129DB010A30F3005B084F
:1012A8000A168A1183260A128A158312031329073C
:1012B800A900A030A4000030A50029080A128A1548
:1012C8000D200A128A15831203134908803AFF0079
:1012D80080307F02031D72290930480203187529DE
:1012E80076297E29013083120313C8070318C90A17
:1012F8000030C907080083120313A1002108A200C7
:101308009E290130F4020030031CF503F50273082E
:1013180084000130F30783130008A000220884002A
:101328000130A207200880000008031D9C299D2980
:101338009E29AD2974087504031DA329A4298529AC
:10134800AD2922088400831380010130A000200801
:10135800A2070130F4020030031CF503F502740AF9
:10136800031DBA29750A031DBA29BB29A529080036
:1013780083120313A200EB292208840083130008B8
:101388000319C729C829D429730884000008A000B4
:1013980022088400000820060319D329D429E32948
:1013A800730884000008A000220884000008A10037
:1013B80020082102F300F401031CF403FB29013087
:1013C800A0002008A2070130A0002008F307013080
:1013D800F4020030031CF503F502740A031DF82912
:1013E800750A031DF829F929C029F301F401080039
:1013F80083120313A701A801220823040319052A4D
:10140800062A3D2AA601A60A142A01300310A20DB5
:10141800A30DFF3E031D0A2A0130F5007508A60733
:10142800A31F172A182A092A01300310A70DA80D8F
:10143800FF3E031D192A23082502031D252A220819
:101448002402031C282A292A302A2208A402230855
:10145800031CA503A502271401300310A30CA20C3A
:10146800FF3E031D312A0130A602031D3C2A3D2AF6
:10147800182A2808A3002708A200080002300A1228
:101488008A156F200A128A1583120313BF000130D0
:101498000A128A156F200A128A1583120313C000D4
:1014A80000300A128A156F200A128A158312031354
:1014B800C1003F08A40004300310A40CFF3E031D24
:1014C800602A24080339303ED2003F080F39303EE5
:1014D800D3004008A40004300310A40CFF3E031DF1
:1014E800702A24080739303ED40040080F39303EAE
:1014F800D5004108A40004300310A40CFF3E031DCE
:10150800802A24080739303ED60041080F39303E7A
:10151800D700D801080083120313AD005230F3003E
:101528000630F4000030F500A0300A128A157F2139
:101538000A128A15831203132D08F3000230F400EF
:101548000030F500A6300A128A157F210A128A1582
:101558000A3083120313A0000030A1002A08AB0050
:10156800AC012B08A2002C08A3000A128A15CC246F
:101578000A128A1583120313200883160313A8007E
:101588000A3083120313A0000030A1002A08AB0020
:10159800AC012B08A2002C08A3000A128A15E3222A
:1015A8000A128A1583120313200883160313A9004D
:1015B800AA010A128A1542210A128A150800F501A1
:1015C80083120313A31FE92AEA2AF12AA209A3090D
:1015D800A20A0319A30AF501F50AA11FF42AF52A9C
:1015E800FA2AA009A109A00A0319A10A20082104BE
:1015F8000319FF2A002B2F2BF401F40A0E2B0130BC
:101608000310A00DA10DFF3E031D042B0130F300B4
:101618007308F407A11F112B122B032B2108230297
:10162800031D182B20082202031C1B2B1C2B222B0A
:101638002008A2022108031CA303A30201300310FF
:10164800A10CA00CFF3E031D232B0130F402031D47
:101658002E2B2F2B122B75080319332B342B392BD8
:10166800A209A309A20A0319A30A2308A1002208B0
:10167800A00008001030831203132A062B04031954
:10168800462B472B4C2B0A128A1542220A128A151E
:10169800C23083120313A80052080A168A116E2654
:1016A8000A128A15C33083120313A80053080A16B6
:1016B8008A116E260A128A15C43083120313A800F1
:1016C8003A300A168A116E260A128A15C530831214
:1016D8000313A80054080A168A116E260A128A15DE
:1016E800C63083120313A80055080A168A116E26FD
:1016F8000A128A15C73083120313A8003A300A1653
:101708008A116E260A128A15C83083120313A8009C
:1017180056080A168A116E260A128A15C9308312CB
:101728000313A80057080A168A116E260A128A158A
:101738000800C33083120313A200CC30A100A10B10
:10174800A32BA20BA32B0000F30133300A168A1136
:10175800EF260A128A151B3083120313A2009D304C
:10176800A100A10BB52BA20BB52BBA2BF30133307B
:101778000A168A11EF260A128A15A5308312031356
:10178800A100A10BC52BC82BF30133300A168A110F
:10179800EF260A128A15D02BD12B0000F30138301E
:1017A8000A168A11EF260A128A15A5308312031326
:1017B800A100A10BDD2BE02BF30101300A168A11E1
:1017C800EF260A128A15043083120313A2003D3053
:1017D800A100A10BED2BA20BED2BF3010C300A1687
:1017E8008A11EF260A128A15A53083120313A10065
:1017F800A10BFC2BFF2B080083120313B00014303D
:10180800A1008630A2008030A3000A128A153C206D
:101818000A128A15831203132D08AE00AF012E0891
:10182800AA002F08AB000A128A153E230A128A154D
:10183800831203133008A1000030A200CB30A300AC
:101848000A128A153C200A128A15CE308312031315
:10185800A8000A30A0000030A1002C08AE00AF019B
:101868002E08A2002F08A3000A128A15CC240A12F7
:101878008A15831203132008303E0A168A116E2631
:101888000A128A15CF3083120313A8000A30A00069
:101898000030A1002C08AE00AF012E08A2002F08CE
:1018A800A3000A128A15E3220A128A158312031367
:1018B8002008303E0A168A116E260A128A15080078
:1018C800003083120313AB000030AA000030A900D7
:1018D8000030A80023082204210420040319752CD1
:1018E800762CC32CAC01AC0A862C0130F300031013
:1018F800A00DA10DA20DA30DF30B7B2C0130F3005D
:101908007308AC07A31F892C8A2C792C0130F300AB
:101918000310A80DA90DAA0DAB0DF30B8C2C2308F1
:101928002702031DA12C22082602031DA12C210831
:101938002502031DA12C20082402031CA42CA52C7D
:10194800B42C2008A4022108031C210FA502220898
:10195800031C220FA6022308031C230FA702281426
:1019680001300310A30CA20CA10CA00CFF3E031D18
:10197800B52C0130AC02031DC22CC32C8A2C2B08B9
:10198800A3002A08A2002908A1002808A00008002E
:1019980083120313A501A11FD22CD32CDA2CA00982
:1019A800A109A00A0319A10AA501A50AA31FDD2CF4
:1019B800DE2CE72CA209A309A20A0319A30A013005
:1019C800F3007308A506A601A7012008210403193E
:1019D800EE2CEF2C262DA401A40AFD2C01300310B7
:1019E800A00DA10DFF3E031DF32C0130F300730879
:1019F800A407A11F002D012DF22C01300310A60D04
:101A0800A70DFF3E031D022D21082302031D0E2DE5
:101A180020082202031C112D122D192D2008A202C4
:101A28002108031CA303A302261401300310A10CF0
:101A3800A00CFF3E031D1A2D0130A402031D252D05
:101A4800262D012D250803192A2D2B2D302DA60909
:101A5800A709A60A0319A70A2708A1002608A000B3
:101A68000800831203138C1C3A2D3B2DA42D013042
:101A7800F8070318F90A0030F907E230780604304D
:101A880003197906031D492D4A2D7F2DF801F90107
:101A98004708803AFF0080307F02031D552D013032
:101AA8004602031C582D592D622DFF308312031353
:101AB800C6070318C70AFF30C7077F2D8312031311
:101AC80046084704031D692D6A2D7F2D4D08803A6D
:101AD800FF0080307F02031D732D01304C02031C70
:101AE800762D772D7F2DFF3083120313CC07031833
:101AF800CD0AFF30CD070130F6070318F70A00308A
:101B0800F707EE307606023003197706031D8D2D90
:101B18008E2DA12DF601F701013083120313CA0798
:101B28000318CB0A0030CB073D304A064B04031D8F
:101B38009E2D9F2DA12DCA01CB01831203138C105A
:101B48007208FF0071088A00700E8300FE0E7E0E78
:101B5800090083120313AC001215121510302C065D
:101B6800031DB72DB82DBA2D3F30AA004A18BD2D38
:101B7800BE2D0D2EC230A80052080A168A116E26F4
:101B88000A128A15C33083120313A80053080A16D1
:101B98008A116E260A128A15C43083120313A8000C
:101BA8003A300A168A116E260A128A15C53083122F
:101BB8000313A80054080A168A116E260A128A15F9
:101BC800C63083120313A80055080A168A116E2618
:101BD8000A128A15C73083120313A8003A300A166E
:101BE8008A116E260A128A15C83083120313A800B8
:101BF80056080A168A116E260A128A15C9308312E7
:101C08000313A80057080A168A116E260A128A15A5
:101C1800162E5908C03EA800FF300A168A116E26F3
:101C28000A128A152F30831203132A06031D1D2E4C
:101C38001E2E3C2E5A08803AFF0080307F02031D7A
:101C4800272E0930590203182A2E2B2E362E8312DE
:101C580003135908033ED9005A080318013E003EF1
:101C6800DA003C2E033083120313D9000030DA0067
:101C780037302A06031D412E422EC12E0330590645
:101C88005A04031D482E492E712E0130AB002B0833
:101C9800D3073A305306031D522E532E602E32308E
:101CA80052020318582E592E602E0130AB002B0813
:101CB800D2073030D300C12E32305206031D652EB4
:101CC800662EC12E34305306031D6B2E6C2EC12E8A
:101CD8003030D3003030D200C12E063059065A04B5
:101CE800031D772E782E992E0130AB002B08D507CF
:101CF8003A305506031D812E822E8E2E3630540220
:101D08000318872E882E8E2E0130AB002B08D4079F
:101D18003030D50036305406031D932E942EC12E34
:101D28003030D5003030D400C12E093059065A045D
:101D3800031D9F2EA02EC12E0130AB002B08D70704
:101D48003A305706031DA92EAA2EB62E3630560253
:101D58000318AF2EB02EB62E0130AB002B08D607D5
:101D68003030D70036305606031DBB2EBC2EC12E90
:101D78003030D7003030D600C12E1F302A06031D60
:101D8800C62EC72EC82E0330080083120313B800CE
:101D9800121508302A06031DD22ED32EDB2E3F3013
:101DA800B8000A30CC000030CD00C601C701480A8F
:101DB800031DE22E490A031DE22EE32EEF2E1C30EE
:101DC800A1008730A200C030A3000A128A153C2067
:101DD8000A128A15F02F08302A06031DF42EF52E54
:101DE800F62ECE0137303806031DFB2EFC2E1A2F97
:101DF8004808FF3EAB0049080318013EFF3EAC000F
:101E08002C08803A803C031D0B2F2B084E02031828
:101E18000E2F0F2F1A2F013083120313AB002B083C
:101E2800CE070A30CC000030CD002A2F2F30831285
:101E380003133806031D212F222F2A2F4E080319BA
:101E4800262F272F2A2F0130CE02152FB901BA01CC
:101E58000A30F300831203134E080A168A118326E8
:101E68000A128A15053E83120313B70039082D3E5E
:101E78008400390837070A128A15A2200A128A151F
:101E880083138000013083120313B9070318BA0AB9
:101E98000030BA073A08803AFF0080307F02031DFD
:101EA800572F0A303902031C5A2F5B2F2C2FC030B2
:101EB80083120313A8000A30A0000030A1004E08C6
:101EC800AB00AC012B08A2002C08A3000A128A154B
:101ED800E3220A128A15831203132008303E0A16D9
:101EE8008A116E260A128A15C23083120313A800BB
:101EF8002D080A168A116E260A128A15C330831213
:101F08000313A8002E080A168A116E260A128A15CB
:101F1800C43083120313A8003A300A168A116E26B9
:101F28000A128A15C53083120313A8002F080A164F
:101F38008A116E260A128A15C63083120313A80066
:101F480030080A168A116E260A128A15C7308312BB
:101F58000313A8003A300A168A116E260A128A1547
:101F6800C83083120313A80031080A168A116E2696
:101F78000A128A15C93083120313A80032080A16F8
:101F88008A116E260A128A15CB3083120313A80011
:101F980033080A168A116E260A128A15CC30831263
:101FA8000313A80034080A168A116E260A128A1525
:101FB800CE3083120313A80035080A168A116E263C
:101FC8000A128A15CF3083120313A80036080A169E
:101FD8008A116E260A128A151F30831203133806D7
:101FE8000319F72FF82FFE2F4C084D04031DFD2F62
:101FF800FE2FFF2F03300800FF1B0A2883137F18CA
:1020080083170008840A0319FF0A08007F087F392C
:0C2018008A000408840A0319FF0A8200F1
:102BD6008316031306083F3886000800831603137E
:102BE6009F17831203131F14080064008001840AD0
:102BF6000406031900340406F92D0A168A1128263C
:102C06000A168A1183160313111408000A168A116C
:102C160028260A168A1183160313111508000A16A8
:102C26008A1109260A168A110A168A1100260A1618
:102C36008A110800831603138801091189100A12E4
:102C46008A159D230A168A11080083160313141980
:102C56002D2E2E2E282E11081F39031D332E342E0D
:102C6600282E0800F30101300A168A11EF260A16EB
:102C76008A11043083120313A2003D30A100A10B78
:102C8600422EA20B422E08007E088A007F08820090
:102C96000A168A1147260A168A118000840A040831
:102CA6007D0603190034FF0A0319FE0A4B2E831210
:102CB60003131F151F19602E612E5D2E1E08A1001D
:102CC600831603131E0883120313A0002108F400C1
:102CD6002008F300080083120313A900F301280853
:102CE6000A168A11EF260A168A11F301F30A8312CD
:102CF600031329080A168A11EF260A168A110800F4
:102D060083120313A100A001211C8A2E8B2E8F2E65
:102D16007308F4007408A0070310F30D0310A10C48
:102D26002108031D972E982E872E20080800393477
:102D360087343C3487342D34873430348734333405
:102D460087343634873413348734F6348634D234B1
:102D56008634EB348634683486344F344E3400344B
:102D6600F5000A168A1128260A168A117508831292
:102D760003139300031083160313111F031400306B
:102D86000318013083120313A000A1012008F300E9
:102D96002108F4000800F3000A168A1128260A16EC
:102DA6008A118316031391150A168A1128260A1604
:102DB6008A11831203131308F4007303031DE42E10
:102DC600E52EE92E831603139116EC2E83160313B4
:102DD600911211167408080083120313A0007318C9
:102DE600F52EF92E831203130915FC2E83120313F5
:102DF6000911200888008914A630F400F40B012F6D
:102E060000008312031389101B30F5009E30F40076
:102E1600F40B0B2FF50B0B2F000008008312031386
:102E2600A3000A168A1100260A168A11D0300A163D
:102E36008A11B3260A168A118312031323080A1667
:102E46008A11B3260A168A118312031322080A1658
:102E56008A11B3260A168A110A168A1109260A1633
:102E66008A11080083120313A3000A168A1100268A
:102E76000A168A11A0300A168A11B3260A168A1172
:102E86008312031323080A168A11B3260A168A1117
:102E96008312031322080A168A11B3260A168A1108
:102EA6000A168A1109260A168A11080083120313C4
:102EB600A1002108A000692F0130F5007508A007C0
:102EC6000130F3070318F40A0030F4077408FF0012
:102ED600730884000A168A1100200A168A11F50062
:102EE600200884007508831380000008031D7C2FCA
:102EF6007D2F5F2F0800F4007408031D832F842F95
:102F0600892F8312031306083F39A72F3F308312F8
:102F160003130605F3003F3073060319932F942F0E
:102F26009B2F7A080319982F992F9B2FFA01842F2C
:102F36003F300605F3003F307306031DA32FA42F71
:102F4600A62FFA01FA0A3F3008000A168A111D2632
:102F56000A168A110A168A11EB250A168A110A160A
:102F66008A11F1250A168A11003083120313B00064
:102F76000130AF008630AE00A030AD000A128A15CF
:102F8600D5200A168A110A128A11EB270A168A1107
:102F96000A128A1500200A168A118B170B170800C9
:102FA600F500831603178C18D92FDA2FD42F75083E
:102FB600831203178D0073088C003F30F4007408E9
:102FC600831603178C058312031303108B1FEC2F34
:102FD600ED2FEE2F03148B13831603170C155530A4
:102FE6008D00AA308D008C140C1183120313031C60
:0A2FF600FD2FFE2FFF2F8B170800A0
:02400E00FB3F76
:00000001FF
